:020000020000FC
:100000000FEF0DBF18E01EBF00E80093610004E091
:100010000093610000E007B90FEF08B90FEF0AB9CC
:100020000FE204B930E010E020E000E005B90BB9C0
:1000300006B100FF0E94310006B101FF0E943800A6
:1000400006B102FF0E943F0006B103FF0E94460076
:1000500006B104FF0E944D00EBCF04E60A95F1F7CC
:10006000089500000E942D00309B0C9431001CC0AC
:1000700000000E942D00319B0C9438001AC0000033
:100080000E942D00329B0C943F0018C000000E947B
:100090002D00339B0C94460016C000000E942D00DA
:1000A000349B0C944D0014C0339534FD33271AC093
:1000B000BFCF3A9537FD332715C0BACF139514FD3E
:1000C000112712C0B5CF1A9517FD11270DC0B0CF5B
:1000D000232F210F24FD0E947B00522F407F542BA1
:1000E0005BB9A6CF35B9A4CF4BB14F70012F0295A4
:0C00F000402B4BB99DCF2D9A222708957C
:00000001FF
